{
  "_format": "hh-sol-artifact-1",
  "contractName": "SimpleDEX",
  "sourceName": "contracts/SimpleDEX.sol",
  "abi": [
    {
      "inputs": [
        {
          "internalType": "address",
          "name": "_token1",
          "type": "address"
        },
        {
          "internalType": "address",
          "name": "_token2",
          "type": "address"
        }
      ],
      "stateMutability": "nonpayable",
      "type": "constructor"
    },
    {
      "anonymous": false,
      "inputs": [
        {
          "indexed": true,
          "internalType": "address",
          "name": "user",
          "type": "address"
        },
        {
          "indexed": false,
          "internalType": "address",
          "name": "fromToken",
          "type": "address"
        },
        {
          "indexed": false,
          "internalType": "address",
          "name": "toToken",
          "type": "address"
        },
        {
          "indexed": false,
          "internalType": "uint256",
          "name": "amount",
          "type": "uint256"
        }
      ],
      "name": "Swap",
      "type": "event"
    },
    {
      "inputs": [],
      "name": "rate",
      "outputs": [
        {
          "internalType": "uint256",
          "name": "",
          "type": "uint256"
        }
      ],
      "stateMutability": "view",
      "type": "function"
    },
    {
      "inputs": [
        {
          "internalType": "address",
          "name": "fromToken",
          "type": "address"
        },
        {
          "internalType": "address",
          "name": "toToken",
          "type": "address"
        },
        {
          "internalType": "uint256",
          "name": "amount",
          "type": "uint256"
        }
      ],
      "name": "swap",
      "outputs": [],
      "stateMutability": "nonpayable",
      "type": "function"
    },
    {
      "inputs": [],
      "name": "token1",
      "outputs": [
        {
          "internalType": "contract IERC20",
          "name": "",
          "type": "address"
        }
      ],
      "stateMutability": "view",
      "type": "function"
    },
    {
      "inputs": [],
      "name": "token2",
      "outputs": [
        {
          "internalType": "contract IERC20",
          "name": "",
          "type": "address"
        }
      ],
      "stateMutability": "view",
      "type": "function"
    }
  ],
  "bytecode": "0x6080604052600160025534801561001557600080fd5b50604051610a86380380610a8683398181016040528101906100379190610122565b816000806101000a81548173ffffffffffffffffffffffffffffffffffffffff021916908373ffffffffffffffffffffffffffffffffffffffff16021790555080600160006101000a81548173ffffffffffffffffffffffffffffffffffffffff021916908373ffffffffffffffffffffffffffffffffffffffff1602179055505050610162565b600080fd5b600073ffffffffffffffffffffffffffffffffffffffff82169050919050565b60006100ef826100c4565b9050919050565b6100ff816100e4565b811461010a57600080fd5b50565b60008151905061011c816100f6565b92915050565b60008060408385031215610139576101386100bf565b5b60006101478582860161010d565b92505060206101588582860161010d565b9150509250929050565b610915806101716000396000f3fe608060405234801561001057600080fd5b506004361061004c5760003560e01c806325be124e146100515780632c4e722e1461006f578063d21220a71461008d578063df791e50146100ab575b600080fd5b6100596100c7565b6040516100669190610534565b60405180910390f35b6100776100ed565b6040516100849190610568565b60405180910390f35b6100956100f3565b6040516100a29190610534565b60405180910390f35b6100c560048036038101906100c091906105f2565b610117565b005b600160009054906101000a900473ffffffffffffffffffffffffffffffffffffffff1681565b60025481565b60008054906101000a900473ffffffffffffffffffffffffffffffffffffffff1681565b60008054906101000a900473ffffffffffffffffffffffffffffffffffffffff1673ffffffffffffffffffffffffffffffffffffffff168373ffffffffffffffffffffffffffffffffffffffff1614806101be5750600160009054906101000a900473ffffffffffffffffffffffffffffffffffffffff1673ffffffffffffffffffffffffffffffffffffffff168373ffffffffffffffffffffffffffffffffffffffff16145b6101fd576040517f08c379a00000000000000000000000000000000000000000000000000000000081526004016101f4906106a2565b60405180910390fd5b60008054906101000a900473ffffffffffffffffffffffffffffffffffffffff1673ffffffffffffffffffffffffffffffffffffffff168273ffffffffffffffffffffffffffffffffffffffff1614806102a45750600160009054906101000a900473ffffffffffffffffffffffffffffffffffffffff1673ffffffffffffffffffffffffffffffffffffffff168273ffffffffffffffffffffffffffffffffffffffff16145b6102e3576040517f08c379a00000000000000000000000000000000000000000000000000000000081526004016102da9061070e565b60405180910390fd5b8173ffffffffffffffffffffffffffffffffffffffff168373ffffffffffffffffffffffffffffffffffffffff1603610351576040517f08c379a00000000000000000000000000000000000000000000000000000000081526004016103489061077a565b60405180910390fd5b8273ffffffffffffffffffffffffffffffffffffffff166323b872dd3330846040518463ffffffff1660e01b815260040161038e939291906107a9565b6020604051808303816000875af11580156103ad573d6000803e3d6000fd5b505050506040513d601f19601f820116820180604052508101906103d19190610818565b508173ffffffffffffffffffffffffffffffffffffffff1663a9059cbb33600254846103fd9190610874565b6040518363ffffffff1660e01b815260040161041a9291906108b6565b6020604051808303816000875af1158015610439573d6000803e3d6000fd5b505050506040513d601f19601f8201168201806040525081019061045d9190610818565b503373ffffffffffffffffffffffffffffffffffffffff167fffebebfb273923089a3ed6bac0fd4686ac740307859becadeb82f998e30db6148484846040516104a8939291906107a9565b60405180910390a2505050565b600073ffffffffffffffffffffffffffffffffffffffff82169050919050565b6000819050919050565b60006104fa6104f56104f0846104b5565b6104d5565b6104b5565b9050919050565b600061050c826104df565b9050919050565b600061051e82610501565b9050919050565b61052e81610513565b82525050565b60006020820190506105496000830184610525565b92915050565b6000819050919050565b6105628161054f565b82525050565b600060208201905061057d6000830184610559565b92915050565b600080fd5b6000610593826104b5565b9050919050565b6105a381610588565b81146105ae57600080fd5b50565b6000813590506105c08161059a565b92915050565b6105cf8161054f565b81146105da57600080fd5b50565b6000813590506105ec816105c6565b92915050565b60008060006060848603121561060b5761060a610583565b5b6000610619868287016105b1565b935050602061062a868287016105b1565b925050604061063b868287016105dd565b9150509250925092565b600082825260208201905092915050565b7f496e76616c69642066726f6d20746f6b656e0000000000000000000000000000600082015250565b600061068c601283610645565b915061069782610656565b602082019050919050565b600060208201905081810360008301526106bb8161067f565b9050919050565b7f496e76616c696420746f20746f6b656e00000000000000000000000000000000600082015250565b60006106f8601083610645565b9150610703826106c2565b602082019050919050565b60006020820190508181036000830152610727816106eb565b9050919050565b7f43616e6e6f7420737761702073616d6520746f6b656e00000000000000000000600082015250565b6000610764601683610645565b915061076f8261072e565b602082019050919050565b6000602082019050818103600083015261079381610757565b9050919050565b6107a381610588565b82525050565b60006060820190506107be600083018661079a565b6107cb602083018561079a565b6107d86040830184610559565b949350505050565b60008115159050919050565b6107f5816107e0565b811461080057600080fd5b50565b600081519050610812816107ec565b92915050565b60006020828403121561082e5761082d610583565b5b600061083c84828501610803565b91505092915050565b7f4e487b7100000000000000000000000000000000000000000000000000000000600052601160045260246000fd5b600061087f8261054f565b915061088a8361054f565b92508282026108988161054f565b915082820484148315176108af576108ae610845565b5b5092915050565b60006040820190506108cb600083018561079a565b6108d86020830184610559565b939250505056fea2646970667358221220dc4fd6775f79143f752ff0ced7c835d88096f16f3652103d6e4ef4214e82199e64736f6c634300081b0033",
  "linkReferences": {},
  "deployedLinkReferences": {}
}