{
  "_format": "hh-sol-artifact-1",
  "contractName": "SimpleDEX",
  "sourceName": "contracts/SimpleDEX.sol",
  "abi": [
    {
      "inputs": [
        {
          "internalType": "address",
          "name": "_tokenA",
          "type": "address"
        },
        {
          "internalType": "address",
          "name": "_tokenB",
          "type": "address"
        }
      ],
      "stateMutability": "nonpayable",
      "type": "constructor"
    },
    {
      "anonymous": false,
      "inputs": [
        {
          "indexed": false,
          "internalType": "address",
          "name": "user",
          "type": "address"
        },
        {
          "indexed": false,
          "internalType": "uint256",
          "name": "amountA",
          "type": "uint256"
        },
        {
          "indexed": false,
          "internalType": "uint256",
          "name": "amountB",
          "type": "uint256"
        }
      ],
      "name": "LiquidityAdded",
      "type": "event"
    },
    {
      "anonymous": false,
      "inputs": [
        {
          "indexed": false,
          "internalType": "address",
          "name": "user",
          "type": "address"
        },
        {
          "indexed": false,
          "internalType": "uint256",
          "name": "amountA",
          "type": "uint256"
        },
        {
          "indexed": false,
          "internalType": "uint256",
          "name": "amountB",
          "type": "uint256"
        }
      ],
      "name": "LiquidityRemoved",
      "type": "event"
    },
    {
      "anonymous": false,
      "inputs": [
        {
          "indexed": true,
          "internalType": "address",
          "name": "user",
          "type": "address"
        },
        {
          "indexed": false,
          "internalType": "uint256",
          "name": "amountIn",
          "type": "uint256"
        },
        {
          "indexed": false,
          "internalType": "uint256",
          "name": "amountOut",
          "type": "uint256"
        },
        {
          "indexed": false,
          "internalType": "uint256",
          "name": "swapType",
          "type": "uint256"
        }
      ],
      "name": "Swap",
      "type": "event"
    },
    {
      "inputs": [
        {
          "internalType": "uint256",
          "name": "amountA",
          "type": "uint256"
        },
        {
          "internalType": "uint256",
          "name": "amountB",
          "type": "uint256"
        }
      ],
      "name": "addLiquidity",
      "outputs": [],
      "stateMutability": "nonpayable",
      "type": "function"
    },
    {
      "inputs": [
        {
          "internalType": "address",
          "name": "_token",
          "type": "address"
        }
      ],
      "name": "getPrice",
      "outputs": [
        {
          "internalType": "uint256",
          "name": "",
          "type": "uint256"
        }
      ],
      "stateMutability": "view",
      "type": "function"
    },
    {
      "inputs": [],
      "name": "owner",
      "outputs": [
        {
          "internalType": "address",
          "name": "",
          "type": "address"
        }
      ],
      "stateMutability": "view",
      "type": "function"
    },
    {
      "inputs": [],
      "name": "pool",
      "outputs": [
        {
          "internalType": "uint256",
          "name": "tokenA",
          "type": "uint256"
        },
        {
          "internalType": "uint256",
          "name": "tokenB",
          "type": "uint256"
        }
      ],
      "stateMutability": "view",
      "type": "function"
    },
    {
      "inputs": [
        {
          "internalType": "uint256",
          "name": "amountA",
          "type": "uint256"
        },
        {
          "internalType": "uint256",
          "name": "amountB",
          "type": "uint256"
        }
      ],
      "name": "removeLiquidity",
      "outputs": [],
      "stateMutability": "nonpayable",
      "type": "function"
    },
    {
      "inputs": [
        {
          "internalType": "uint256",
          "name": "amountAIn",
          "type": "uint256"
        }
      ],
      "name": "swapAforB",
      "outputs": [],
      "stateMutability": "nonpayable",
      "type": "function"
    },
    {
      "inputs": [
        {
          "internalType": "uint256",
          "name": "amountBIn",
          "type": "uint256"
        }
      ],
      "name": "swapBforA",
      "outputs": [],
      "stateMutability": "nonpayable",
      "type": "function"
    },
    {
      "inputs": [],
      "name": "tokenA",
      "outputs": [
        {
          "internalType": "contract IERC20",
          "name": "",
          "type": "address"
        }
      ],
      "stateMutability": "view",
      "type": "function"
    },
    {
      "inputs": [],
      "name": "tokenB",
      "outputs": [
        {
          "internalType": "contract IERC20",
          "name": "",
          "type": "address"
        }
      ],
      "stateMutability": "view",
      "type": "function"
    }
  ],
  "bytecode": "0x60e060405234801561001057600080fd5b506040516121f23803806121f283398181016040528101906100329190610241565b8173ffffffffffffffffffffffffffffffffffffffff1660808173ffffffffffffffffffffffffffffffffffffffff16815250508073ffffffffffffffffffffffffffffffffffffffff1660a08173ffffffffffffffffffffffffffffffffffffffff16815250503373ffffffffffffffffffffffffffffffffffffffff1660c08173ffffffffffffffffffffffffffffffffffffffff168152505060805173ffffffffffffffffffffffffffffffffffffffff166370a08231306040518263ffffffff1660e01b81526004016101099190610290565b602060405180830381865afa158015610126573d6000803e3d6000fd5b505050506040513d601f19601f8201168201806040525081019061014a91906102e1565b600080018190555060a05173ffffffffffffffffffffffffffffffffffffffff166370a08231306040518263ffffffff1660e01b815260040161018d9190610290565b602060405180830381865afa1580156101aa573d6000803e3d6000fd5b505050506040513d601f19601f820116820180604052508101906101ce91906102e1565b600060010181905550505061030e565b600080fd5b600073ffffffffffffffffffffffffffffffffffffffff82169050919050565b600061020e826101e3565b9050919050565b61021e81610203565b811461022957600080fd5b50565b60008151905061023b81610215565b92915050565b60008060408385031215610258576102576101de565b5b60006102668582860161022c565b92505060206102778582860161022c565b9150509250929050565b61028a81610203565b82525050565b60006020820190506102a56000830184610281565b92915050565b6000819050919050565b6102be816102ab565b81146102c957600080fd5b50565b6000815190506102db816102b5565b92915050565b6000602082840312156102f7576102f66101de565b5b6000610305848285016102cc565b91505092915050565b60805160a05160c051611e376103bb600039600081816107c5015281816107e90152610ce3015260008181610240015281816103f4015281816105b0015281816109ce01528181610b8a01528181610f07015281816110a9015261137a0152600081816101b3015281816101eb0152818161034a0152818161049c0152818161068f015281816108f001528181610aab01528181610e2a01528181611185015261129b0152611e376000f3fe608060405234801561001057600080fd5b50600436106100935760003560e01c80638014a7aa116100665780638014a7aa146101235780638da5cb5b1461013f5780639cd441da1461015d5780639d7de6b314610179578063e4f1f70a1461019557610093565b80630fc63d101461009857806316f0115b146100b657806341976e09146100d55780635f64b55b14610105575b600080fd5b6100a06101b1565b6040516100ad919061159c565b60405180910390f35b6100be6101d5565b6040516100cc9291906115d0565b60405180910390f35b6100ef60048036038101906100ea919061163c565b6101e7565b6040516100fc9190611669565b60405180910390f35b61010d6103f2565b60405161011a919061159c565b60405180910390f35b61013d600480360381019061013891906116b0565b610416565b005b6101476107c3565b60405161015491906116ec565b60405180910390f35b61017760048036038101906101729190611707565b6107e7565b005b610193600480360381019061018e9190611707565b610ce1565b005b6101af60048036038101906101aa91906116b0565b611023565b005b7f000000000000000000000000000000000000000000000000000000000000000081565b60008060000154908060010154905082565b60007f000000000000000000000000000000000000000000000000000000000000000073ffffffffffffffffffffffffffffffffffffffff168273ffffffffffffffffffffffffffffffffffffffff16148061028e57507f000000000000000000000000000000000000000000000000000000000000000073ffffffffffffffffffffffffffffffffffffffff168273ffffffffffffffffffffffffffffffffffffffff16145b6102cd576040517f08c379a00000000000000000000000000000000000000000000000000000000081526004016102c4906117a4565b60405180910390fd5b60008060405180604001604052908160008201548152602001600182015481525050905060008160000151118015610309575060008160200151115b610348576040517f08c379a000000000000000000000000000000000000000000000000000000000815260040161033f90611810565b60405180910390fd5b7f000000000000000000000000000000000000000000000000000000000000000073ffffffffffffffffffffffffffffffffffffffff168373ffffffffffffffffffffffffffffffffffffffff16036103c6578060000151670de0b6b3a7640000826020015102816103bd576103bc611830565b5b049150506103ed565b8060200151670de0b6b3a7640000826000015102816103e8576103e7611830565b5b049150505b919050565b7f000000000000000000000000000000000000000000000000000000000000000081565b60008111610459576040517f08c379a0000000000000000000000000000000000000000000000000000000008152600401610450906118ab565b60405180910390fd5b6000309050600080604051806040016040529081600082015481526020016001820154815250509050600061049784836020015184600001516114ae565b9050807f000000000000000000000000000000000000000000000000000000000000000073ffffffffffffffffffffffffffffffffffffffff166370a08231856040518263ffffffff1660e01b81526004016104f391906116ec565b602060405180830381865afa158015610510573d6000803e3d6000fd5b505050506040513d601f19601f8201168201806040525081019061053491906118e0565b1015610575576040517f08c379a000000000000000000000000000000000000000000000000000000000815260040161056c90611810565b60405180910390fd5b8382602001818151019150818152505080826000018181510391508181525050816000808201518160000155602082015181600101559050507f000000000000000000000000000000000000000000000000000000000000000073ffffffffffffffffffffffffffffffffffffffff166323b872dd3385876040518463ffffffff1660e01b815260040161060b9392919061190d565b6020604051808303816000875af115801561062a573d6000803e3d6000fd5b505050506040513d601f19601f8201168201806040525081019061064e919061197c565b61068d576040517f08c379a0000000000000000000000000000000000000000000000000000000008152600401610684906119f5565b60405180910390fd5b7f000000000000000000000000000000000000000000000000000000000000000073ffffffffffffffffffffffffffffffffffffffff1663a9059cbb33836040518363ffffffff1660e01b81526004016106e8929190611a15565b6020604051808303816000875af1158015610707573d6000803e3d6000fd5b505050506040513d601f19601f8201168201806040525081019061072b919061197c565b61076a576040517f08c379a000000000000000000000000000000000000000000000000000000000815260040161076190611a8a565b60405180910390fd5b3373ffffffffffffffffffffffffffffffffffffffff167f5620e542b9ce6a03dbe5af2c6483e766af6c96439562b26a0dcd2edd7099524b858360026040516107b593929190611ae5565b60405180910390a250505050565b7f000000000000000000000000000000000000000000000000000000000000000081565b7f000000000000000000000000000000000000000000000000000000000000000073ffffffffffffffffffffffffffffffffffffffff163373ffffffffffffffffffffffffffffffffffffffff1614610875576040517f08c379a000000000000000000000000000000000000000000000000000000000815260040161086c90611b68565b60405180910390fd5b6000821180156108855750600081115b6108c4576040517f08c379a00000000000000000000000000000000000000000000000000000000081526004016108bb906118ab565b60405180910390fd5b6000309050600080604051806040016040529081600082015481526020016001820154815250509050837f000000000000000000000000000000000000000000000000000000000000000073ffffffffffffffffffffffffffffffffffffffff1663dd62ed3e33856040518363ffffffff1660e01b8152600401610949929190611b88565b602060405180830381865afa158015610966573d6000803e3d6000fd5b505050506040513d601f19601f8201168201806040525081019061098a91906118e0565b10156109cb576040517f08c379a00000000000000000000000000000000000000000000000000000000081526004016109c290611bfd565b60405180910390fd5b827f000000000000000000000000000000000000000000000000000000000000000073ffffffffffffffffffffffffffffffffffffffff1663dd62ed3e33856040518363ffffffff1660e01b8152600401610a27929190611b88565b602060405180830381865afa158015610a44573d6000803e3d6000fd5b505050506040513d601f19601f82011682018060405250810190610a6891906118e0565b1015610aa9576040517f08c379a0000000000000000000000000000000000000000000000000000000008152600401610aa090611c69565b60405180910390fd5b7f000000000000000000000000000000000000000000000000000000000000000073ffffffffffffffffffffffffffffffffffffffff166323b872dd3384876040518463ffffffff1660e01b8152600401610b069392919061190d565b6020604051808303816000875af1158015610b25573d6000803e3d6000fd5b505050506040513d601f19601f82011682018060405250810190610b49919061197c565b610b88576040517f08c379a0000000000000000000000000000000000000000000000000000000008152600401610b7f90611a8a565b60405180910390fd5b7f000000000000000000000000000000000000000000000000000000000000000073ffffffffffffffffffffffffffffffffffffffff166323b872dd3384866040518463ffffffff1660e01b8152600401610be59392919061190d565b6020604051808303816000875af1158015610c04573d6000803e3d6000fd5b505050506040513d601f19601f82011682018060405250810190610c28919061197c565b610c67576040517f08c379a0000000000000000000000000000000000000000000000000000000008152600401610c5e906119f5565b60405180910390fd5b8381600001818151019150818152505082816020018181510191508181525050806000808201518160000155602082015181600101559050507fac1d76749e5447b7b16f5ab61447e1bd502f3bb4807af3b28e620d1700a6ee45338585604051610cd393929190611c89565b60405180910390a150505050565b7f000000000000000000000000000000000000000000000000000000000000000073ffffffffffffffffffffffffffffffffffffffff163373ffffffffffffffffffffffffffffffffffffffff1614610d6f576040517f08c379a0000000000000000000000000000000000000000000000000000000008152600401610d6690611b68565b60405180910390fd5b60008060405180604001604052908160008201548152602001600182015481525050905082816000015110158015610dab575081816020015110155b610dea576040517f08c379a0000000000000000000000000000000000000000000000000000000008152600401610de190611810565b60405180910390fd5b60003090508382600001818151039150818152505082826020018181510391508181525050816000808201518160000155602082015181600101559050507f000000000000000000000000000000000000000000000000000000000000000073ffffffffffffffffffffffffffffffffffffffff1663a9059cbb33866040518363ffffffff1660e01b8152600401610e83929190611a15565b6020604051808303816000875af1158015610ea2573d6000803e3d6000fd5b505050506040513d601f19601f82011682018060405250810190610ec6919061197c565b610f05576040517f08c379a0000000000000000000000000000000000000000000000000000000008152600401610efc90611a8a565b60405180910390fd5b7f000000000000000000000000000000000000000000000000000000000000000073ffffffffffffffffffffffffffffffffffffffff1663a9059cbb33856040518363ffffffff1660e01b8152600401610f60929190611a15565b6020604051808303816000875af1158015610f7f573d6000803e3d6000fd5b505050506040513d601f19601f82011682018060405250810190610fa3919061197c565b610fe2576040517f08c379a0000000000000000000000000000000000000000000000000000000008152600401610fd9906119f5565b60405180910390fd5b7f96cd817c6329656790ef8fba7675405193677d39619571282f5e21f3a98cd05933858560405161101593929190611c89565b60405180910390a150505050565b60008111611066576040517f08c379a000000000000000000000000000000000000000000000000000000000815260040161105d906118ab565b60405180910390fd5b600030905060008060405180604001604052908160008201548152602001600182015481525050905060006110a484836000015184602001516114ae565b9050807f000000000000000000000000000000000000000000000000000000000000000073ffffffffffffffffffffffffffffffffffffffff166370a08231856040518263ffffffff1660e01b815260040161110091906116ec565b602060405180830381865afa15801561111d573d6000803e3d6000fd5b505050506040513d601f19601f8201168201806040525081019061114191906118e0565b1015611182576040517f08c379a000000000000000000000000000000000000000000000000000000000815260040161117990611810565b60405180910390fd5b837f000000000000000000000000000000000000000000000000000000000000000073ffffffffffffffffffffffffffffffffffffffff1663dd62ed3e33866040518363ffffffff1660e01b81526004016111de929190611b88565b602060405180830381865afa1580156111fb573d6000803e3d6000fd5b505050506040513d601f19601f8201168201806040525081019061121f91906118e0565b1015611260576040517f08c379a000000000000000000000000000000000000000000000000000000000815260040161125790611d0c565b60405180910390fd5b8382600001818151019150818152505080826020018181510391508181525050816000808201518160000155602082015181600101559050507f000000000000000000000000000000000000000000000000000000000000000073ffffffffffffffffffffffffffffffffffffffff166323b872dd3385876040518463ffffffff1660e01b81526004016112f69392919061190d565b6020604051808303816000875af1158015611315573d6000803e3d6000fd5b505050506040513d601f19601f82011682018060405250810190611339919061197c565b611378576040517f08c379a000000000000000000000000000000000000000000000000000000000815260040161136f90611a8a565b60405180910390fd5b7f000000000000000000000000000000000000000000000000000000000000000073ffffffffffffffffffffffffffffffffffffffff1663a9059cbb33836040518363ffffffff1660e01b81526004016113d3929190611a15565b6020604051808303816000875af11580156113f2573d6000803e3d6000fd5b505050506040513d601f19601f82011682018060405250810190611416919061197c565b611455576040517f08c379a000000000000000000000000000000000000000000000000000000000815260040161144c906119f5565b60405180910390fd5b3373ffffffffffffffffffffffffffffffffffffffff167f5620e542b9ce6a03dbe5af2c6483e766af6c96439562b26a0dcd2edd7099524b858360016040516114a093929190611d67565b60405180910390a250505050565b60008284846114bd9190611dcd565b116114fd576040517f08c379a00000000000000000000000000000000000000000000000000000000081526004016114f4906118ab565b60405180910390fd5b8383018284028161151157611510611830565b5b04820390509392505050565b600073ffffffffffffffffffffffffffffffffffffffff82169050919050565b6000819050919050565b600061156261155d6115588461151d565b61153d565b61151d565b9050919050565b600061157482611547565b9050919050565b600061158682611569565b9050919050565b6115968161157b565b82525050565b60006020820190506115b1600083018461158d565b92915050565b6000819050919050565b6115ca816115b7565b82525050565b60006040820190506115e560008301856115c1565b6115f260208301846115c1565b9392505050565b600080fd5b60006116098261151d565b9050919050565b611619816115fe565b811461162457600080fd5b50565b60008135905061163681611610565b92915050565b600060208284031215611652576116516115f9565b5b600061166084828501611627565b91505092915050565b600060208201905061167e60008301846115c1565b92915050565b61168d816115b7565b811461169857600080fd5b50565b6000813590506116aa81611684565b92915050565b6000602082840312156116c6576116c56115f9565b5b60006116d48482850161169b565b91505092915050565b6116e6816115fe565b82525050565b600060208201905061170160008301846116dd565b92915050565b6000806040838503121561171e5761171d6115f9565b5b600061172c8582860161169b565b925050602061173d8582860161169b565b9150509250929050565b600082825260208201905092915050565b7f21746b6e00000000000000000000000000000000000000000000000000000000600082015250565b600061178e600483611747565b915061179982611758565b602082019050919050565b600060208201905081810360008301526117bd81611781565b9050919050565b7f216c697100000000000000000000000000000000000000000000000000000000600082015250565b60006117fa600483611747565b9150611805826117c4565b602082019050919050565b60006020820190508181036000830152611829816117ed565b9050919050565b7f4e487b7100000000000000000000000000000000000000000000000000000000600052601260045260246000fd5b7f21616d7400000000000000000000000000000000000000000000000000000000600082015250565b6000611895600483611747565b91506118a08261185f565b602082019050919050565b600060208201905081810360008301526118c481611888565b9050919050565b6000815190506118da81611684565b92915050565b6000602082840312156118f6576118f56115f9565b5b6000611904848285016118cb565b91505092915050565b600060608201905061192260008301866116dd565b61192f60208301856116dd565b61193c60408301846115c1565b949350505050565b60008115159050919050565b61195981611944565b811461196457600080fd5b50565b60008151905061197681611950565b92915050565b600060208284031215611992576119916115f9565b5b60006119a084828501611967565b91505092915050565b7f2174724200000000000000000000000000000000000000000000000000000000600082015250565b60006119df600483611747565b91506119ea826119a9565b602082019050919050565b60006020820190508181036000830152611a0e816119d2565b9050919050565b6000604082019050611a2a60008301856116dd565b611a3760208301846115c1565b9392505050565b7f2174724100000000000000000000000000000000000000000000000000000000600082015250565b6000611a74600483611747565b9150611a7f82611a3e565b602082019050919050565b60006020820190508181036000830152611aa381611a67565b9050919050565b6000819050919050565b6000611acf611aca611ac584611aaa565b61153d565b6115b7565b9050919050565b611adf81611ab4565b82525050565b6000606082019050611afa60008301866115c1565b611b0760208301856115c1565b611b146040830184611ad6565b949350505050565b7f216f776e00000000000000000000000000000000000000000000000000000000600082015250565b6000611b52600483611747565b9150611b5d82611b1c565b602082019050919050565b60006020820190508181036000830152611b8181611b45565b9050919050565b6000604082019050611b9d60008301856116dd565b611baa60208301846116dd565b9392505050565b7f21616c7741000000000000000000000000000000000000000000000000000000600082015250565b6000611be7600583611747565b9150611bf282611bb1565b602082019050919050565b60006020820190508181036000830152611c1681611bda565b9050919050565b7f21616c7742000000000000000000000000000000000000000000000000000000600082015250565b6000611c53600583611747565b9150611c5e82611c1d565b602082019050919050565b60006020820190508181036000830152611c8281611c46565b9050919050565b6000606082019050611c9e60008301866116dd565b611cab60208301856115c1565b611cb860408301846115c1565b949350505050565b7f21616c7700000000000000000000000000000000000000000000000000000000600082015250565b6000611cf6600483611747565b9150611d0182611cc0565b602082019050919050565b60006020820190508181036000830152611d2581611ce9565b9050919050565b6000819050919050565b6000611d51611d4c611d4784611d2c565b61153d565b6115b7565b9050919050565b611d6181611d36565b82525050565b6000606082019050611d7c60008301866115c1565b611d8960208301856115c1565b611d966040830184611d58565b949350505050565b7f4e487b7100000000000000000000000000000000000000000000000000000000600052601160045260246000fd5b6000611dd8826115b7565b9150611de3836115b7565b9250828201905080821115611dfb57611dfa611d9e565b5b9291505056fea2646970667358221220bf94cd6506bbf21f77581e1d23e43f9bdabb09069029c273c2204a90e808e2ea64736f6c634300081c0033",
  "linkReferences": {},
  "deployedLinkReferences": {}
}